:100000000C942A000C948E210C9447000C94470009
:100010000C9447000C9447000C9447000C94470044
:100020000C9447000C9447000C94531D0C9447000B
:100030000C9447000C9447000C9447000C94470024
:100040000C94041F0C9447000C9447000C94470038
:100050000C94470011241FBECFE5D8E0DEBFCDBF12
:1000600011E0A0E6B0E0ECEFF2E602C005900D92E0
:10007000AE3BB107D9F711E0AEEBB1E001C01D9284
:10008000A43DB107E1F70E94BC240C947C310C9490
:100090000000EF92FF920F931F937B018C0120E0F1
:1000A00030E040E05FE40E94490388238CF0C801FF
:1000B000B70120E030E040E05FE40E94C1010E940F
:1000C000A9039B01AC01205030404040504806C07D
:1000D000C801B7010E94A9039B01AC01B901CA0183
:1000E0001F910F91FF90EF900895A0E0B0E0EBE733
:1000F000F0E00C944531DC012B01FA019C91923027
:1001000008F439C1EB018881823008F433C194309E
:1001100069F4843009F02FC111969C91119789815F
:10012000981709F428C1A8E7B1E025C1843009F483
:1001300021C18230A9F4923009F01DC19A01AD01AC
:1001400088E0EA010990AE01E90109929E0181501F
:10015000C1F7E201898111969C918923818308C1AD
:10016000923009F407C112962D903C901397EB0141
:100170008A819B811496AD90BD90CD90DC901797AD
:10018000EC80FD800E811F819101281B390BB90184
:1001900037FF04C066277727621B730B6032710537
:1001A0000CF061C0121613066CF537014801062EDB
:1001B00004C096948794779467940A94D2F721E0C8
:1001C00030E040E050E004C0220F331F441F551FB1
:1001D0006A95D2F721503040404050402E213F21B7
:1001E00040235123211531054105510521F021E01E
:1001F00030E040E050E079018A01E628F72808293C
:1002000019293CC0232BD1F1260E371E350146019A
:10021000062E04C096948794779467940A94D2F734
:1002200021E030E040E050E004C0220F331F441FC3
:10023000551F6A95D2F721503040404050402A2146
:100240003B214C215D21211531054105510521F04E
:1002500021E030E040E050E059016A01A628B728CB
:10026000C828D9280BC0821593052CF01C01AA249C
:10027000BB24650103C0EE24FF24870111969C91E5
:10028000D20111968C91981709F445C0992339F041
:10029000A80197012A193B094C095D0906C0A6016E
:1002A00095012E193F09400B510B57FD08C01182D3
:1002B0003382228224833583468357831DC081E0A5
:1002C00081833382228288279927DC01821B930B4A
:1002D000A40BB50B84839583A683B7830DC0220F2F
:1002E000331F441F551F24833583468357838281E0
:1002F000938101979383828324813581468157813D
:10030000DA01C9010197A109B1098F5F9F4FAF4F72
:10031000BF4328F30BC0918333822282EA0CFB1C7B
:100320000C1D1D1DE482F5820683178383E0808304
:10033000248135814681578157FF1AC0C901AA27F8
:1003400097FDA095BA2F81709070A070B0705695EF
:10035000479537952795822B932BA42BB52B848318
:100360009583A683B7838281938101969383828349
:10037000DF0101C0D201CD01CDB7DEB7E2E10C94BF
:100380006131A0E2B0E0E7ECF1E00C945131698317
:100390007A838B839C832D833E834F835887E9E048
:1003A000EE2EF12CEC0EFD1ECE010196B7010E943F
:1003B000D2048E010F5E1F4FCE010596B8010E9438
:1003C000D2048A8991E089278A8BC701B801AE01DE
:1003D000475E5F4F0E9475000E94FD03A096E6E015
:1003E0000C946D31A0E2B0E0E8EFF1E00C945131F3
:1003F00069837A838B839C832D833E834F835887C5
:10040000F9E0EF2EF12CEC0EFD1ECE010196B701A6
:100410000E94D2048E010F5E1F4FCE010596B801D7
:100420000E94D204C701B801AE01475E5F4F0E942F
:1004300075000E94FD03A096E6E00C946D31A0E2E9
:10044000B0E0E5E2F2E00C94453169837A838B8376
:100450009C832D833E834F835887CE010196BE0136
:10046000675F7F4F0E94D204CE010596BE016F5E8A
:100470007F4F0E94D2049985923088F0898982301A
:10048000C8F0943019F4823051F404C0843029F457
:10049000923081F488E791E0C6C0923049F420E0C0
:1004A0009A858A89981321E02A87CE010996BBC0D4
:1004B000823049F420E09A858A89981321E02A8BBA
:1004C000CE014196B0C02D843E844F8458886D88FB
:1004D0007E888F88988CEE24FF248701AA24BB2471
:1004E000650140E050E060E070E0E0E0F0E0C10174
:1004F00081709070892BE9F0E60CF71C081D191D1E
:100500009A01AB012A0D3B1D4C1D5D1D80E090E062
:10051000A0E0B0E0E614F7040805190520F481E036
:1005200090E0A0E0B0E0BA01A901480F591F6A1F8E
:100530007B1FAA0CBB1CCC1CDD1C97FE08C081E0F5
:1005400090E0A0E0B0E0A82AB92ACA2ADB2A3196B6
:10055000E032F10549F0660C771C881C991C569412
:10056000479437942794C3CFFA85EA892B893C892D
:100570008B859C85280F391F2E5F3F4F17C0CA01FE
:1005800081709070892B61F016950795F794E79428
:1005900080E090E0A0E0B0E8E82AF92A0A2B1B2BC3
:1005A00076956795579547952F5F3F4F77FDE7CF36
:1005B0000CC0440F551F661F771F17FD4160EE0CDE
:1005C000FF1C001F111F21503040403090E05907A0
:1005D00090E0690790E4790760F32B8F3C8FDB0193
:1005E000CA018F779070A070B07080349105A1051A
:1005F000B10561F447FD0AC0E114F10401051105DC
:1006000029F0405C5F4F6F4F7F4F40781A8EFE1786
:1006100011F081E08A8F4D8F5E8F6F8F78A383E01A
:10062000898FCE0149960E94FD03A096E2E10C94C9
:100630006131A8E1B0E0EFE1F3E00C94513169835E
:100640007A838B839C832D833E834F83588789E0F5
:10065000E82EF12CEC0EFD1ECE010196B7010E9492
:10066000D2048E010F5E1F4FCE010596B8010E9485
:10067000D2048985823040F08989823028F0C70110
:10068000B8010E944A0501C08FEF6896E6E00C941D
:100690006D31A8E1B0E0EFE4F3E00C9451316983EF
:1006A0007A838B839C832D833E834F83588789E095
:1006B000E82EF12CEC0EFD1ECE010196B7010E9432
:1006C000D2048E010F5E1F4FCE010596B8010E9425
:1006D000D2048985823040F08989823028F0C701B0
:1006E000B8010E944A0501C08FEF6896E6E00C94BD
:1006F0006D31A8E1B0E0EFE7F3E00C94513169838C
:100700007A838B839C832D833E834F83588789E034
:10071000E82EF12CEC0EFD1ECE010196B7010E94D1
:10072000D2048E010F5E1F4FCE010596B8010E94C4
:10073000D2048985823040F08989823028F0C7014F
:10074000B8010E944A0501C081E06896E6E00C9479
:100750006D31ACE0B0E0EFEAF3E00C945531698321
:100760007A838B839C83CE010196BE016B5F7F4FA2
:100770000E94D2048D81823061F1823050F1843048
:1007800021F48E81882351F12EC02F81388537FDC9
:1007900020C06E812F3131051CF06623F9F023C093
:1007A0008EE190E0821B930B29853A854B855C8511
:1007B00004C056954795379527958A95D2F76623B5
:1007C000B1F050954095309521953F4F4F4F5F4F79
:1007D0000EC020E030E040E050E009C02FEF3FEFD6
:1007E0004FEF5FE704C020E030E040E050E8B9019F
:1007F000CA012C96E2E00C947131DF92EF92FF92E5
:100800000F931F93FC01E480F58006811781D1804E
:100810008081823048F480E090E0A0E1B0E0E82AF6
:10082000F92A0A2B1B2BA5C0843009F49FC0823003
:1008300021F4EE24FF24870105C0E114F104010531
:10084000110519F4E0E0F0E096C0628173819FEF3A
:10085000623879070CF05BC022E83FEF261B370BAC
:100860002A3131052CF020E030E040E050E02AC091
:10087000B801A701022E04C0769567955795479554
:100880000A94D2F781E090E0A0E0B0E004C0880FC5
:10089000991FAA1FBB1F2A95D2F70197A109B10979
:1008A0008E219F21A023B1230097A105B10521F03E
:1008B00081E090E0A0E0B0E09A01AB01282B392B59
:1008C0004A2B5B2BDA01C9018F779070A070B07052
:1008D00080349105A105B10539F427FF09C0205CDA
:1008E0003F4F4F4F5F4F04C0215C3F4F4F4F5F4F13
:1008F000E0E0F0E02030A0E03A07A0E04A07A0E402
:100900005A0710F0E1E0F0E079018A0127C0603871
:10091000710564F5FB01E158FF4FD801C7018F77DE
:100920009070A070B07080349105A105B10539F4C4
:10093000E7FE0DC080E490E0A0E0B0E004C08FE3EB
:1009400090E0A0E0B0E0E80EF91E0A1F1B1F17FFA1
:1009500005C016950795F794E794319687E01695AC
:100960000795F794E7948A95D1F705C0EE24FF2404
:100970008701EFEFF0E06E2F679566276795902F60
:100980009F77D794DD24D7948E2F8695492F462BB9
:10099000582F5D29B701CA011F910F91FF90EF9069
:1009A000DF900895FC01DB01408151812281622F9B
:1009B0006F7770E0221F2227221F9381892F880FD3
:1009C000822B282F30E0991F9927991F11969C930D
:1009D000119721153105A9F54115510561057105DD
:1009E00011F482E037C082E89FEF13969C938E93B8
:1009F00012979A01AB0167E0220F331F441F551F66
:100A00006A95D1F783E08C930DC0220F331F441FEA
:100A1000551F12968D919C911397019713969C9355
:100A20008E931297203080E0380780E0480780E4FA
:100A3000580758F314962D933D934D935C93179755
:100A400008952F3F310579F4411551056105710570
:100A500019F484E08C93089564FF03C081E08C93C3
:100A600012C01C9210C02F57304013963C932E9307
:100A7000129783E08C9387E0440F551F661F771F02
:100A80008A95D1F7706414964D935D936D937C9322
:100A9000179708951F93DC01FB019C91923008F495
:100AA00047C08081823008F443C0943051F41196DD
:100AB0001C91843099F58181682F70E0611B710968
:100AC0003FC0843021F0923031F48230B9F181811D
:100AD000882389F12DC011961C9111978230F1F075
:100AE00081811817D9F412962D913C911397828128
:100AF00093818217930794F028173907BCF0149656
:100B00008D919D910D90BC91A02D248135814681C0
:100B10005781281739074A075B0718F4112341F05A
:100B20000AC082179307A407B50740F4112319F0F0
:100B300061E070E005C06FEF7FEF02C060E070E041
:100B4000CB011F910895DF93CF9300D000D000D048
:100B5000CDB7DEB79B838A836C8319828A819B81A0
:100B6000009719F482E089833CC08C81282F30E003
:100B70003E832D838D819E818130910531F02D81C1
:100B80003E8122303105B1F02AC0EA81FB818081AB
:100B9000EA81FB819181692F41E00E94E521EA8190
:100BA000FB818081EA81FB819281692F40E00E9474
:100BB000E52117C0EA81FB818081EA81FB81918177
:100BC000692F40E00E94E521EA81FB818081EA8172
:100BD000FB819281692F41E00E94E52102C085E0FE
:100BE0008983898126960FB6F894DEBF0FBECDBFEC
:100BF000CF91DF910895DF93CF9300D00F92CDB7BF
:100C0000DEB79B838A8319828A819B81009719F4BE
:100C100082E0898314C0EA81FB818081EA81FB81C3
:100C20009181692F40E00E94E521EA81FB8180816A
:100C3000EA81FB819281692F40E00E94E521898150
:100C40000F900F900F90CF91DF9108950F931F9306
:100C5000DF93CF93CDB7DEB7C25FD0400FB6F89425
:100C6000DEBF0FBECDBFFE01E651FF4F91838083F3
:100C7000FE01E451FF4F71836083FE01E251FF4F9B
:100C80004083FE01E751FF4F1082FE01EB51FF4F01
:100C90001082118212821382FE01EF51FF4F1082E7
:100CA000118212821382FE01E651FF4F80819181F1
:100CB000009739F4FE01E751FF4F82E080830C94E6
:100CC000B715FE01E451FF4F80819181009711F02B
:100CD0000C946D0EFE01E251FF4F8081282F30E011
:100CE000CF50DF4F39832883C15FD040CF50DF4FD3
:100CF00088819981C15FD0408130910509F4F9C3A1
:100D0000CF50DF4FE881F981C15FD040E230F1057B
:100D100011F00C94670EFE01E651FF4F0190F08137
:100D2000E02D8081FE01E651FF4F0190F081E02D22
:100D30009181692F40E00E94E521FE01E651FF4FBD
:100D40000190F081E02D8081FE01E651FF4F01907E
:100D5000F081E02D9281692F41E00E94E521FE01A2
:100D6000E651FF4F0190F081E02D8081FE01E651B8
:100D7000FF4F0190F081E02D9381692F41E00E94A7
:100D8000E521FE01E651FF4F0190F081E02D8081C9
:100D9000FE01E651FF4F0190F081E02D9481692F13
:100DA00041E00E94E521FE01E352FF4F80E090E028
:100DB000A0E0B0E480839183A283B3838E010752C5
:100DC0001F4FFE01E352FF4F608171818281938149
:100DD00020E030E04AEF54E40E941F02DC01CB0126
:100DE000F80180839183A283B383FE01E752FF4F12
:100DF000608171818281938120E030E040E85FE38F
:100E00000E947903882344F4FE01E952FF4F81E0F8
:100E100090E09183808364C0FE01E752FF4F6081C0
:100E200071818281938120E03FEF4FE757E40E9478
:100E3000190318160CF043C0FE01E352FF4F608106
:100E400071818281938120E030E040E251E40E9490
:100E50001F02DC01CB018E0109521F4FBC01CD01E5
:100E60000E944900DC01CB01F801918380831FC0FF
:100E7000FE01EB52FF4F88EC90E091838083FE01EE
:100E8000EB52FF4F808191810197F1F7FE01EB5208
:100E9000FF4F91838083DE01A952BF4FFE01E952CB
:100EA000FF4F80819181019711969C938E93FE0153
:100EB000E952FF4F808191810097D1F627C08E01C2
:100EC00009521F4FFE01E752FF4F608171818281FD
:100ED00093810E944900DC01CB01F801918380835A
:100EE000DE01AD52BF4FFE01E952FF4F808191817B
:100EF0008D939C93FE01ED52FF4F8081918101976C
:100F0000F1F7FE01ED52FF4F91838083FE01E65120
:100F1000FF4F0190F081E02D8081FE01E651FF4FEF
:100F20000190F081E02D9181692F41E00E94E5213F
:100F3000FE01E651FF4F0190F081E02D8081FE011E
:100F4000E651FF4F0190F081E02D9281692F40E042
:100F50000E94E521FE01E651FF4F0190F081E02D56
:100F60008081FE01E651FF4F0190F081E02D9381D9
:100F7000692F41E00E94E521FE01E651FF4F0190FB
:100F8000F081E02D8081FE01E651FF4F0190F0815C
:100F9000E02D9481692F41E00E94E521FE01E1539B
:100FA000FF4F80E090E0A0E0B0E480839183A283D3
:100FB000B3838E0105531F4FFE01E153FF4F608144
:100FC00071818281938120E030E04AEF54E40E94F5
:100FD0001F02DC01CB01F80180839183A283B383DC
:100FE000FE01E553FF4F608171818281938120E092
:100FF00030E040E85FE30E947903882344F4FE0177
:10100000E753FF4F81E090E09183808364C0FE014D
:10101000E553FF4F608171818281938120E03FEF32
:101020004FE757E40E94190318160CF043C0FE0165
:10103000E153FF4F608171818281938120E030E034
:1010400040E251E40E941F02DC01CB018E010753F4
:101050001F4FBC01CD010E944900DC01CB01F8010A
:10106000918380831FC0FE01E953FF4F88EC90E01D
:1010700091838083FE01E953FF4F80819181019725
:10108000F1F7FE01E953FF4F91838083DE01A753FF
:10109000BF4FFE01E753FF4F808191810197119669
:1010A0009C938E93FE01E753FF4F808191810097BF
:1010B000D1F627C08E0107531F4FFE01E553FF4FA6
:1010C00060817181828193810E944900DC01CB01A2
:1010D000F80191838083DE01AB53BF4FFE01E753DC
:1010E000FF4F808191818D939C93FE01EB53FF4FC5
:1010F000808191810197F1F7FE01EB53FF4F9183BE
:101100008083FE01E651FF4F0190F081E02D808148
:10111000FE01E651FF4F0190F081E02D9181692F92
:1011200041E00E94E521FE01E651FF4F0190F08170
:10113000E02D8081FE01E651FF4F0190F081E02D0E
:101140009281692F41E00E94E521FE01E651FF4FA7
:101150000190F081E02D8081FE01E651FF4F01906A
:10116000F081E02D9381692F40E00E94E521FE018E
:10117000E651FF4F0190F081E02D8081FE01E651A4
:10118000FF4F0190F081E02D9481692F41E00E9492
:10119000E521FE01EF53FF4F80E090E0A0E0B0E4D6
:1011A00080839183A283B3838E0103541F4FFE017A
:1011B000EF53FF4F608171818281938120E030E0A5
:1011C0004AEF54E40E941F02DC01CB01F801808346
:1011D0009183A283B383FE01E354FF4F6081718149
:1011E0008281938120E030E040E85FE30E94790350
:1011F000882344F4FE01E554FF4F81E090E09183A1
:10120000808364C0FE01E354FF4F6081718182815D
:10121000938120E03FEF4FE757E40E94190318162F
:101220000CF043C0FE01EF53FF4F6081718182815A
:10123000938120E030E040E251E40E941F02DC0193
:10124000CB018E0105541F4FBC01CD010E94490006
:10125000DC01CB01F801918380831FC0FE01E754BC
:10126000FF4F88EC90E091838083FE01E754FF4FAD
:10127000808191810197F1F7FE01E754FF4F91833F
:101280008083DE01A554BF4FFE01E554FF4F8081EE
:101290009181019711969C938E93FE01E554FF4F27
:1012A000808191810097D1F627C08E0105541F4F90
:1012B000FE01E354FF4F60817181828193810E941E
:1012C0004900DC01CB01F80191838083DE01A95440
:1012D000BF4FFE01E554FF4F808191818D939C9318
:1012E000FE01E954FF4F808191810197F1F7FE01E2
:1012F000E954FF4F91838083FE01E651FF4F019037
:10130000F081E02D8081FE01E651FF4F0190F081D8
:10131000E02D9181692F41E00E94E521FE01E65117
:10132000FF4F0190F081E02D8081FE01E651FF4FDB
:101330000190F081E02D9281692F41E00E94E5212A
:10134000FE01E651FF4F0190F081E02D8081FE010A
:10135000E651FF4F0190F081E02D9381692F41E02C
:101360000E94E521FE01E651FF4F0190F081E02D42
:101370008081FE01E651FF4F0190F081E02D9481C4
:10138000692F40E00E94E521FE01ED54FF4F80E00F
:1013900090E0A0E0B0E480839183A283B3838E01C8
:1013A00001551F4FFE01ED54FF4F60817181828115
:1013B000938120E030E04AEF54E40E941F02DC01F8
:1013C000CB01F80180839183A283B383FE01E155B1
:1013D000FF4F608171818281938120E030E040E89D
:1013E0005FE30E947903882344F4FE01E355FF4F35
:1013F00081E090E09183808364C0FE01E155FF4F5E
:10140000608171818281938120E03FEF4FE757E453
:101410000E94190318160CF043C0FE01ED54FF4F53
:10142000608171818281938120E030E040E251E46B
:101430000E941F02DC01CB018E0103551F4FBC012E
:10144000CD010E944900DC01CB01F801918380832A
:101450001FC0FE01E555FF4F88EC90E0918380832B
:10146000FE01E555FF4F808191810197F1F7FE0163
:10147000E555FF4F91838083DE01A355BF4FFE01E9
:10148000E355FF4F80819181019711969C938E9334
:10149000FE01E355FF4F808191810097D1F63BCC4F
:1014A0008E0103551F4FFE01E155FF4F6081718191
:1014B000828193810E944900DC01CB01F801918374
:1014C0008083DE01A755BF4FFE01E355FF4F8081AA
:1014D000918111969C938E93FE01E755FF4F808179
:1014E00091810197F1F7FE01E755FF4F91838083CA
:1014F00012CCFE01E651FF4F0190F081E02D80817A
:10150000FE01E651FF4F0190F081E02D9481692F9B
:1015100040E00E94E521FE01E651FF4F0190F0817D
:10152000E02D8081FE01E651FF4F0190F081E02D1A
:101530009381692F41E00E94E521FE01E651FF4FB2
:101540000190F081E02D8081FE01E651FF4F019076
:10155000F081E02D9281692F41E00E94E521FE019A
:10156000E651FF4F0190F081E02D8081FE01E651B0
:10157000FF4F0190F081E02D9181692F41E00E94A1
:10158000E521FE01EB55FF4F80E090E0A0E0B0E4E4
:1015900080839183A283B3838E010F551F4FFE0179
:1015A000EB55FF4F608171818281938120E030E0B3
:1015B0004AEF54E40E941F02DC01CB01F801808352
:1015C0009183A283B383FE01EF55FF4F6081718148
:1015D0008281938120E030E040E85FE30E9479035C
:1015E000882344F4FE01E156FF4F81E090E09183AF
:1015F000808364C0FE01EF55FF4F6081718182815D
:10160000938120E03FEF4FE757E40E94190318163B
:101610000CF043C0FE01EB55FF4F60817181828168
:10162000938120E030E040E251E40E941F02DC019F
:10163000CB018E0101561F4FBC01CD010E94490014
:10164000DC01CB01F801918380831FC0FE01E356CA
:10165000FF4F88EC90E091838083FE01E356FF4FBB
:10166000808191810197F1F7FE01E356FF4F91834D
:101670008083DE01A156BF4FFE01E156FF4F8081FE
:101680009181019711969C938E93FE01E156FF4F35
:10169000808191810097D1F627C08E0101561F4F9E
:1016A000FE01EF55FF4F60817181828193810E941D
:1016B0004900DC01CB01F80191838083DE01A5564E
:1016C000BF4FFE01E156FF4F808191818D939C9326
:1016D000FE01E556FF4F808191810197F1F7FE01F0
:1016E000E556FF4F91838083FE01E651FF4F019045
:1016F000F081E02D8081FE01E651FF4F0190F081E5
:10170000E02D9481692F41E00E94E521FE01E65120
:10171000FF4F0190F081E02D8081FE01E651FF4FE7
:101720000190F081E02D9381692F40E00E94E52136
:10173000FE01E651FF4F0190F081E02D8081FE0116
:10174000E651FF4F0190F081E02D9281692F41E039
:101750000E94E521FE01E651FF4F0190F081E02D4E
:101760008081FE01E651FF4F0190F081E02D9181D3
:10177000692F41E00E94E521FE01E956FF4F80E01C
:1017800090E0A0E0B0E480839183A283B3838E01D4
:101790000D561F4FFE01E956FF4F60817181828116
:1017A000938120E030E04AEF54E40E941F02DC0104
:1017B000CB01F80180839183A283B383FE01ED56B0
:1017C000FF4F608171818281938120E030E040E8A9
:1017D0005FE30E947903882344F4FE01EF56FF4F34
:1017E00081E090E09183808364C0FE01ED56FF4F5D
:1017F000608171818281938120E03FEF4FE757E460
:101800000E94190318160CF043C0FE01E956FF4F61
:10181000608171818281938120E030E040E251E477
:101820000E941F02DC01CB018E010F561F4FBC012D
:10183000CD010E944900DC01CB01F8019183808336
:101840001FC0FE01E157FF4F88EC90E09183808339
:10185000FE01E157FF4F808191810197F1F7FE0171
:10186000E157FF4F91838083DE01AF56BF4FFE01EA
:10187000EF56FF4F80819181019711969C938E9333
:10188000FE01EF56FF4F808191810097D1F627C06E
:101890008E010F561F4FFE01ED56FF4F6081718183
:1018A000828193810E944900DC01CB01F801918380
:1018B0008083DE01A357BF4FFE01EF56FF4F8081AB
:1018C00091818D939C93FE01E357FF4F808191811D
:1018D0000197F1F7FE01E357FF4F91838083FE01EB
:1018E000E651FF4F0190F081E02D8081FE01E6512D
:1018F000FF4F0190F081E02D9481692F41E00E941B
:10190000E521FE01E651FF4F0190F081E02D80813D
:10191000FE01E651FF4F0190F081E02D9381692F88
:1019200041E00E94E521FE01E651FF4F0190F08168
:10193000E02D8081FE01E651FF4F0190F081E02D06
:101940009281692F40E00E94E521FE01E651FF4FA0
:101950000190F081E02D8081FE01E651FF4F019062
:10196000F081E02D9181692F41E00E94E521FE0187
:10197000E757FF4F80E090E0A0E0B0E480839183E0
:10198000A283B3838E010B571F4FFE01E757FF4F12
:10199000608171818281938120E030E04AEF54E4DC
:1019A0000E941F02DC01CB01F80180839183A28396
:1019B000B383FE01EB57FF4F608171818281938178
:1019C00020E030E040E85FE30E947903882344F49C
:1019D000FE01ED57FF4F81E090E09183808364C06A
:1019E000FE01EB57FF4F608171818281938120E07E
:1019F0003FEF4FE757E40E94190318160CF043C05D
:101A0000FE01E757FF4F608171818281938120E061
:101A100030E040E251E40E941F02DC01CB018E0164
:101A20000D571F4FBC01CD010E944900DC01CB01C5
:101A3000F801918380831FC0FE01EF57FF4F88ECB0
:101A400090E091838083FE01EF57FF4F8081918169
:101A50000197F1F7FE01EF57FF4F91838083DE017D
:101A6000AD57BF4FFE01ED57FF4F80819181019728
:101A700011969C938E93FE01ED57FF4F80819181CB
:101A80000097D1F627C08E010D571F4FFE01EB576F
:101A9000FF4F60817181828193810E944900DC0146
:101AA000CB01F80191838083DE01A158BF4FFE0175
:101AB000ED57FF4F808191818D939C93FE01E158FA
:101AC000FF4F808191810197F1F7FE01E158FF4FAF
:101AD00091838083FE01E651FF4F0190F081E02D5C
:101AE0008081FE01E651FF4F0190F081E02D94814D
:101AF000692F41E00E94E521FE01E651FF4F019070
:101B0000F081E02D8081FE01E651FF4F0190F081D0
:101B1000E02D9381692F41E00E94E521FE01E6510D
:101B2000FF4F0190F081E02D8081FE01E651FF4FD3
:101B30000190F081E02D9281692F41E00E94E52122
:101B4000FE01E651FF4F0190F081E02D8081FE0102
:101B5000E651FF4F0190F081E02D9181692F40E027
:101B60000E94E521FE01E558FF4F80E090E0A0E0F3
:101B7000B0E480839183A283B3838E0109581F4F01
:101B8000FE01E558FF4F608171818281938120E0E1
:101B900030E04AEF54E40E941F02DC01CB01F8015F
:101BA00080839183A283B383FE01E958FF4F608154
:101BB00071818281938120E030E040E85FE30E9400
:101BC0007903882344F4FE01EB58FF4F81E090E055
:101BD0009183808364C0FE01E958FF4F6081718169
:101BE0008281938120E03FEF4FE757E40E94190381
:101BF00018160CF043C0FE01E558FF4F608171815B
:101C00008281938120E030E040E251E40E941F0293
:101C1000DC01CB018E010B581F4FBC01CD010E948E
:101C20004900DC01CB01F801918380831FC0FE01D4
:101C3000ED58FF4F88EC90E091838083FE01ED58D2
:101C4000FF4F808191810197F1F7FE01ED58FF4F21
:101C500091838083DE01AB58BF4FFE01EB58FF4FED
:101C600080819181019711969C938E93FE01EB5890
:101C7000FF4F808191810097D1F63BCC8E010B58AC
:101C80001F4FFE01E958FF4F60817181828193816E
:101C90000E944900DC01CB01F80191838083DE01C1
:101CA000AF58BF4FFE01EB58FF4F808191811196D5
:101CB0009C938E93FE01EF58FF4F80819181019795
:101CC000F1F7FE01EF58FF4F9183808312CCFE01A4
:101CD000E751FF4F85E080834AC7FE01E451FF4F83
:101CE000808191819C01220F331FC901880F991FA8
:101CF000880F991F820F931F27E030E0B9010E94DF
:101D0000F430CB01FE01EB51FF4FCC01A0E0B0E07D
:101D100080839183A283B383FE01E251FF4F8081D0
:101D2000282F30E0C151DF4F39832883CF5ED04068
:101D3000C151DF4F88819981CF5ED04081309105BC
:101D400009F4F8C3C151DF4FE881F981CF5ED0407B
:101D5000E230F10509F006C7FE01EF51FF4F108296
:101D6000118212821382D0C3FE01E651FF4F01900F
:101D7000F081E02D8081FE01E651FF4F0190F0815E
:101D8000E02D9181692F40E00E94E521FE01E6519E
:101D9000FF4F0190F081E02D8081FE01E651FF4F61
:101DA0000190F081E02D9281692F41E00E94E521B0
:101DB000FE01E651FF4F0190F081E02D8081FE0190
:101DC000E651FF4F0190F081E02D9381692F41E0B2
:101DD0000E94E521FE01E651FF4F0190F081E02DC8
:101DE0008081FE01E651FF4F0190F081E02D94814A
:101DF000692F41E00E94E521FE01E359FF4F80E099
:101E000090E0A0E0B0E480839183A283B3838E014D
:101E100007591F4FFE01E359FF4F60817181828195
:101E2000938120E030E04AEF54E40E941F02DC017D
:101E3000CB01F80180839183A283B383FE01E7592C
:101E4000FF4F608171818281938120E030E040E822
:101E50005FE30E947903882344F4FE01E959FF4FB0
:101E600081E090E09183808364C0FE01E759FF4FD9
:101E7000608171818281938120E03FEF4FE757E4D9
:101E80000E94190318160CF043C0FE01E359FF4FDE
:101E9000608171818281938120E030E040E251E4F1
:101EA0000E941F02DC01CB018E0109591F4FBC01AA
:101EB000CD010E944900DC01CB01F80191838083B0
:101EC0001FC0FE01EB59FF4F88EC90E091838083A7
:101ED000FE01EB59FF4F808191810197F1F7FE01DF
:101EE000EB59FF4F91838083DE01A959BF4FFE015B
:101EF000E959FF4F80819181019711969C938E93B0
:101F0000FE01E959FF4F808191810097D1F627C0EA
:101F10008E0109591F4FFE01E759FF4F6081718102
:101F2000828193810E944900DC01CB01F8019183F9
:101F30008083DE01AD59BF4FFE01E959FF4F80811B
:101F400091818D939C93FE01ED59FF4F808191818A
:101F50000197F1F7FE01ED59FF4F91838083FE0158
:101F6000E651FF4F0190F081E02D8081FE01E651A6
:101F7000FF4F0190F081E02D9181692F41E00E9497
:101F8000E521FE01E651FF4F0190F081E02D8081B7
:101F9000FE01E651FF4F0190F081E02D9281692F03
:101FA00040E00E94E521FE01E651FF4F0190F081E3
:101FB000E02D8081FE01E651FF4F0190F081E02D80
:101FC0009381692F41E00E94E521FE01E651FF4F18
:101FD0000190F081E02D8081FE01E651FF4F0190DC
:101FE000F081E02D9481692F41E00E94E521FE01FE
:101FF000E15AFF4F80E090E0A0E0B0E4808391835D
:10200000A283B3838E01055A1F4FFE01E15AFF4F91
:10201000608171818281938120E030E04AEF54E455
:102020000E941F02DC01CB01F80180839183A2830F
:10203000B383FE01E55AFF4F6081718182819381F4
:1020400020E030E040E85FE30E947903882344F415
:10205000FE01E75AFF4F81E090E09183808364C0E6
:10206000FE01E55AFF4F608171818281938120E0FA
:102070003FEF4FE757E40E94190318160CF043C0D6
:10208000FE01E15AFF4F608171818281938120E0DE
:1020900030E040E251E40E941F02DC01CB018E01DE
:1020A000075A1F4FBC01CD010E944900DC01CB0142
:1020B000F801918380831FC0FE01E95AFF4F88EC2D
:1020C00090E091838083FE01E95AFF4F80819181E6
:1020D0000197F1F7FE01E95AFF4F91838083DE01FA
:1020E000A75ABF4FFE01E75AFF4F808191810197A8
:1020F00011969C938E93FE01E75AFF4F8081918148
:102100000097D1F627C08E01075A1F4FFE01E55AEE
:10211000FF4F60817181828193810E944900DC01BF
:10212000CB01F80191838083DE01AB5ABF4FFE01E2
:10213000E75AFF4F808191818D939C93FE01EB5A6A
:10214000FF4F808191810197F1F7FE01EB5AFF4F1C
:1021500091838083FE01E651FF4F0190F081E02DD5
:102160008081FE01E651FF4F0190F081E02D9181C9
:10217000692F41E00E94E521FE01E651FF4F0190E9
:10218000F081E02D8081FE01E651FF4F0190F0814A
:10219000E02D9281692F41E00E94E521FE01E65188
:1021A000FF4F0190F081E02D8081FE01E651FF4F4D
:1021B0000190F081E02D9381692F40E00E94E5219C
:1021C000FE01E651FF4F0190F081E02D8081FE017C
:1021D000E651FF4F0190F081E02D9481692F41E09D
:1021E0000E94E521FE01EF5AFF4F80E090E0A0E061
:1021F000B0E480839183A283B3838E01035B1F4F7E
:10220000FE01EF5AFF4F608171818281938120E04E
:1022100030E04AEF54E40E941F02DC01CB01F801D8
:1022200080839183A283B383FE01E35BFF4F6081D0
:1022300071818281938120E030E040E85FE30E9479
:102240007903882344F4FE01E55BFF4F81E090E0D1
:102250009183808364C0FE01E35BFF4F60817181E5
:102260008281938120E03FEF4FE757E40E941903FA
:1022700018160CF043C0FE01EF5AFF4F60817181C8
:102280008281938120E030E040E251E40E941F020D
:10229000DC01CB018E01055B1F4FBC01CD010E940B
:1022A0004900DC01CB01F801918380831FC0FE014E
:1022B000E75BFF4F88EC90E091838083FE01E75B52
:1022C000FF4F808191810197F1F7FE01E75BFF4F9E
:1022D00091838083DE01A55BBF4FFE01E55BFF4F6D
:1022E00080819181019711969C938E93FE01E55B0D
:1022F000FF4F808191810097D1F627C08E01055B49
:102300001F4FFE01E35BFF4F6081718182819381EA
:102310000E944900DC01CB01F80191838083DE013A
:10232000A95BBF4FFE01E55BFF4F808191818D93DB
:102330009C93FE01E95BFF4F808191810197F1F74A
:10234000FE01E95BFF4F91838083FE01E651FF4F61
:102350000190F081E02D8081FE01E651FF4F019058
:10236000F081E02D9181692F41E00E94E521FE017D
:10237000E651FF4F0190F081E02D8081FE01E65192
:10238000FF4F0190F081E02D9281692F41E00E9482
:10239000E521FE01E651FF4F0190F081E02D8081A3
:1023A000FE01E651FF4F0190F081E02D9381692FEE
:1023B00041E00E94E521FE01E651FF4F0190F081CE
:1023C000E02D8081FE01E651FF4F0190F081E02D6C
:1023D0009481692F40E00E94E521FE01ED5BFF4FF3
:1023E00080E090E0A0E0B0E480839183A283B38397
:1023F0008E01015C1F4FFE01ED5BFF4F608171811B
:102400008281938120E030E04AEF54E40E941F0271
:10241000DC01CB01F80180839183A283B383FE01A9
:10242000FF96608171818281938120E030E040E8F5
:102430005FE30E94790388232CF481E090E09EAF53
:102440008DAF46C0FE01FF966081718182819381CC
:1024500020E03FEF4FE757E40E941903181664F598
:10246000FE01ED5BFF4F608171818281938120E0ED
:1024700030E040E251E40E941F02DC01CB01BC01CC
:10248000CD010E944900DC01CB019EAF8DAF0FC092
:1024900088EC90E09CAF8BAF8BAD9CAD0197F1F7D2
:1024A0009CAF8BAF8DAD9EAD01979EAF8DAF8DADC7
:1024B0009EAD009769F716C0FE01FF96608171819D
:1024C000828193810E944900DC01CB019EAF8DAFD8
:1024D0008DAD9EAD9AAF89AF89AD9AAD0197F1F7F9
:1024E0009AAF89AF9E012F513F4FFE01EF51FF4F31
:1024F00080819181A281B3810196A11DB11DF90155
:1025000080839183A283B383FE01EF51FF4FDE01ED
:10251000AB51BF4F20813181428153818D919D917B
:102520000D90BC91A02D281739074A075B0708F4C6
:102530001BCC1DC3FE01EF51FF4F1082118212828E
:102540001382FAC2FE01E651FF4F0190F081E02DA7
:102550008081FE01E651FF4F0190F081E02D9481D2
:10256000692F40E00E94E521FE01E651FF4F0190F6
:10257000F081E02D8081FE01E651FF4F0190F08156
:10258000E02D9381692F41E00E94E521FE01E65193
:10259000FF4F0190F081E02D8081FE01E651FF4F59
:1025A0000190F081E02D9281692F41E00E94E521A8
:1025B000FE01E651FF4F0190F081E02D8081FE0188
:1025C000E651FF4F0190F081E02D9181692F41E0AC
:1025D0000E94E52180E090E0A0E0B0E48DAB9EABEE
:1025E000AFABB8AF6DA97EA98FA998AD20E030E060
:1025F0004AEF54E40E941F02DC01CB0189AB9AAB85
:10260000ABABBCAB69A97AA98BA99CA920E030E04F
:1026100040E85FE30E94790388232CF481E090E096
:1026200098AB8FA73FC069A97AA98BA99CA920E084
:102630003FEF4FE757E40E94190318164CF56DA9B8
:102640007EA98FA998AD20E030E040E251E40E94DD
:102650001F02DC01CB01BC01CD010E944900DC015D
:10266000CB0198AB8FA70FC088EC90E09EA78DA7F9
:102670008DA59EA50197F1F79EA78DA78FA598A977
:10268000019798AB8FA78FA598A9009769F714C0F9
:1026900069A97AA98BA99CA90E944900DC01CB01F8
:1026A00098AB8FA78FA598A99CA78BA78BA59CA556
:1026B0000197F1F79CA78BA7FE01E651FF4F019010
:1026C000F081E02D8081FE01E651FF4F0190F08105
:1026D000E02D9481692F41E00E94E521FE01E65141
:1026E000FF4F0190F081E02D8081FE01E651FF4F08
:1026F0000190F081E02D9381692F40E00E94E52157
:10270000FE01E651FF4F0190F081E02D8081FE0136
:10271000E651FF4F0190F081E02D9281692F41E059
:102720000E94E521FE01E651FF4F0190F081E02D6E
:102730008081FE01E651FF4F0190F081E02D9181F3
:10274000692F41E00E94E52180E090E0A0E0B0E444
:102750008FA398A7A9A7BAA76FA178A589A59AA5BD
:1027600020E030E04AEF54E40E941F02DC01CB017C
:102770008BA39CA3ADA3BEA36BA17CA18DA19EA1A5
:1027800020E030E040E85FE30E94790388232CF4E6
:1027900081E090E09AA389A33FC06BA17CA18DA1A9
:1027A0009EA120E03FEF4FE757E40E94190318165F
:1027B0004CF56FA178A589A59AA520E030E040E20C
:1027C00051E40E941F02DC01CB01BC01CD010E943B
:1027D0004900DC01CB019AA389A30FC088EC90E0EB
:1027E00098A38F8F8F8D98A10197F1F798A38F8F62
:1027F00089A19AA101979AA389A389A19AA1009777
:1028000069F714C06BA17CA18DA19EA10E94490013
:10281000DC01CB019AA389A389A19AA19E8F8D8FF8
:102820008D8D9E8D0197F1F79E8F8D8FFE01E65164
:10283000FF4F0190F081E02D8081FE01E651FF4FB6
:102840000190F081E02D9481692F41E00E94E52103
:10285000FE01E651FF4F0190F081E02D8081FE01E5
:10286000E651FF4F0190F081E02D9381692F41E007
:102870000E94E521FE01E651FF4F0190F081E02D1D
:102880008081FE01E651FF4F0190F081E02D9281A1
:10289000692F40E00E94E521FE01E651FF4F0190C3
:1028A000F081E02D8081FE01E651FF4F0190F08123
:1028B000E02D9181692F41E00E94E52180E090E0C8
:1028C000A0E0B0E4898F9A8FAB8FBC8F698D7A8D31
:1028D0008B8D9C8D20E030E04AEF54E40E941F0273
:1028E000DC01CB018D8B9E8BAF8BB88F6D897E8980
:1028F0008F89988D20E030E040E85FE30E94790303
:1029000088232CF481E090E09C8B8B8B3FC06D89F9
:102910007E898F89988D20E03FEF4FE757E40E9432
:10292000190318164CF5698D7A8D8B8D9C8D20E0DE
:1029300030E040E251E40E941F02DC01CB01BC0107
:10294000CD010E944900DC01CB019C8B8B8B0FC019
:1029500088EC90E09A8B898B89899A890197F1F7A5
:102960009A8B898B8B899C8901979C8B8B8B8B890C
:102970009C89009769F714C06D897E898F89988D2D
:102980000E944900DC01CB019C8B8B8B8B899C893D
:10299000988B8F878F8598890197F1F7988B8F8710
:1029A000FE01E651FF4F0190F081E02D8081FE0194
:1029B000E651FF4F0190F081E02D9481692F41E0B5
:1029C0000E94E521FE01E651FF4F0190F081E02DCC
:1029D0008081FE01E651FF4F0190F081E02D93814F
:1029E000692F41E00E94E521FE01E651FF4F019071
:1029F000F081E02D8081FE01E651FF4F0190F081D2
:102A0000E02D9281692F41E00E94E521FE01E6510F
:102A1000FF4F0190F081E02D8081FE01E651FF4FD4
:102A20000190F081E02D9181692F40E00E94E52125
:102A300080E090E0A0E0B0E48B879C87AD87BE8704
:102A40006B857C858D859E8520E030E04AEF54E4DF
:102A50000E941F02DC01CB018F839887A987BA8768
:102A60006F81788589859A8520E030E040E85FE3D2
:102A70000E94790388232CF481E090E09E838D836B
:102A80003FC06F81788589859A8520E03FEF4FE7C9
:102A900057E40E94190318164CF56B857C858D85CB
:102AA0009E8520E030E040E251E40E941F02DC01FC
:102AB000CB01BC01CD010E944900DC01CB019E830A
:102AC0008D830FC088EC90E09C838B838B819C81ED
:102AD0000197F1F79C838B838D819E8101979E8363
:102AE0008D838D819E81009769F714C06F817885F1
:102AF00089859A850E944900DC01CB019E838D83E4
:102B00008D819E819A83898389819A810197F1F7CA
:102B10009A8389839E012F513F4FFE01EF51FF4F52
:102B200080819181A281B3810196A11DB11DF9011E
:102B300080839183A283B383FE01EF51FF4FDE01B7
:102B4000AB51BF4F20813181428153818D919D9145
:102B50000D90BC91A02D281739074A075B0708F490
:102B6000F1CC05C0FE01E751FF4F85E08083FE01F7
:102B7000E751FF4F8081CE50DF4F0FB6F894DEBF94
:102B80000FBECDBFCF91DF911F910F910895DF93BD
:102B9000CF9300D00F92CDB7DEB79B838A83198283
:102BA0008A819B81009719F482E0898328C0EA8199
:102BB000FB818081EA81FB819181692F41E00E9444
:102BC000E521EA81FB818081EA81FB819181692F86
:102BD00041E00E94E521EA81FB818081EA81FB815D
:102BE0009181692F41E00E94E521EA81FB8180818A
:102BF000EA81FB819181692F41E00E94E521898171
:102C00000F900F900F90CF91DF910895DF93CF93A6
:102C100000D000D0CDB7DEB78FEF8B8360C01A82B3
:102C20005AC08A81882F90E0FC01EC57FE4F9081BA
:102C300083E0692F40E00E94E52119823AC0898132
:102C4000882F90E0FC01E058FE4F90819E012C5FA0
:102C50003F4F83E0692FA9010E94CA238C818823FA
:102C600029F58981282F30E08A81482F50E0C90159
:102C7000880F991F820F931F840F951FFC01E9573E
:102C8000FE4F80818B830FC08981882F90E0FC01EB
:102C9000E058FE4F90819E012C5F3F4F83E0692FEB
:102CA000A9010E94CA238C81882371F389818F5FD7
:102CB00089838981843018F28A81882F90E0FC0111
:102CC000EC57FE4F908183E0692F41E00E94E5219F
:102CD0008A818F5F8A838A81833008F4A2CF8B81B7
:102CE0008F3F09F49CCF8B810F900F900F900F9026
:102CF000CF91DF910895DF93CF93CDB7DEB76C9777
:102D00000FB6F894DEBF0FBECDBF80E090E0A0E22A
:102D1000B2E4898F9A8FAB8FBC8F698D7A8D8B8D42
:102D20009C8D20E030E04AEF54E40E941F02DC0159
:102D3000CB018D8B9E8BAF8BB88F6D897E898F89F0
:102D4000988D20E030E040E85FE30E94790388231B
:102D50002CF481E090E09C8B8B8B3FC06D897E8949
:102D60008F89988D20E03FEF4FE757E40E941903C9
:102D700018164CF5698D7A8D8B8D9C8D20E030E096
:102D800040E251E40E941F02DC01CB01BC01CD01F5
:102D90000E944900DC01CB019C8B8B8B0FC088EC1F
:102DA00090E09A8B898B89899A890197F1F79A8BA0
:102DB000898B8B899C8901979C8B8B8B8B899C89B8
:102DC000009769F714C06D897E898F89988D0E945C
:102DD0004900DC01CB019C8B8B8B8B899C89988B68
:102DE0008F878F8598890197F1F7988B8F8782E27B
:102DF0000E94891782E060E80E94F72281E060E08B
:102E000041E00E94E52180E090E0A0E0B0E48B8703
:102E10009C87AD87BE876B857C858D859E8520E0F0
:102E200030E04AEF54E40E941F02DC01CB018F83A3
:102E30009887A987BA876F81788589859A8520E0E8
:102E400030E040E85FE30E94790388232CF481E0BE
:102E500090E09E838D833FC06F81788589859A85B8
:102E600020E03FEF4FE757E40E94190318164CF596
:102E70006B857C858D859E8520E030E040E251E4C5
:102E80000E941F02DC01CB01BC01CD010E94490060
:102E9000DC01CB019E838D830FC088EC90E09C8386
:102EA0008B838B819C810197F1F79C838B838D8130
:102EB0009E8101979E838D838D819E81009769F706
:102EC00014C06F81788589859A850E944900DC014C
:102ED000CB019E838D838D819E819A838983898195
:102EE0009A810197F1F79A83898381E060E040E05D
:102EF0000E94E5218CE00E94891781E00E948917D9
:102F00006C960FB6F894DEBF0FBECDBFCF91DF91A8
:102F10000895DF93CF93CDB7DEB76D970FB6F894D2
:102F2000DEBF0FBECDBF8D8F81E062E040E00E942A
:102F3000E52181E061E040E00E94E52182E06D8DC5
:102F40000E94F72281E060E041E00E94E52180E0FC
:102F500090E0A0E0B0E4898F9A8FAB8FBC8F698D31
:102F60007A8D8B8D9C8D20E030E04AEF54E40E94F6
:102F70001F02DC01CB018D8B9E8BAF8BB88F6D89CF
:102F80007E898F89988D20E030E040E85FE30E94E1
:102F9000790388232CF481E090E09C8B8B8B3FC0DD
:102FA0006D897E898F89988D20E03FEF4FE757E448
:102FB0000E94190318164CF5698D7A8D8B8D9C8DA6
:102FC00020E030E040E251E40E941F02DC01CB012E
:102FD000BC01CD010E944900DC01CB019C8B8B8B95
:102FE0000FC088EC90E09A8B898B89899A89019728
:102FF000F1F79A8B898B8B899C8901979C8B8B8BA2
:103000008B899C89009769F714C06D897E898F89A7
:10301000988D0E944900DC01CB019C8B8B8B8B89A6
:103020009C89988B8F878F8598890197F1F7988B6A
:103030008F8781E060E040E00E94E5218D8D982F30
:103040009295907F82E0692F0E94F72281E060E0F4
:1030500041E00E94E52180E090E0A0E0B0E48B87B1
:103060009C87AD87BE876B857C858D859E8520E09E
:1030700030E04AEF54E40E941F02DC01CB018F8351
:103080009887A987BA876F81788589859A8520E096
:1030900030E040E85FE30E94790388232CF481E06C
:1030A00090E09E838D833FC06F81788589859A8566
:1030B00020E03FEF4FE757E40E94190318164CF544
:1030C0006B857C858D859E8520E030E040E251E473
:1030D0000E941F02DC01CB01BC01CD010E9449000E
:1030E000DC01CB019E838D830FC088EC90E09C8334
:1030F0008B838B819C810197F1F79C838B838D81DE
:103100009E8101979E838D838D819E81009769F7B3
:1031100014C06F81788589859A850E944900DC01F9
:10312000CB019E838D838D819E819A838983898142
:103130009A810197F1F79A83898381E060E040E00A
:103140000E94E5216D960FB6F894DEBF0FBECDBF8D
:10315000CF91DF910895DF93CF93CDB7DEB76D9711
:103160000FB6F894DEBF0FBECDBF8D8F81E062E059
:1031700041E00E94E52181E061E040E00E94E5211C
:1031800082E06D8D0E94F72281E060E041E00E94C4
:10319000E52180E090E0A0E0B0E4898F9A8FAB8FCA
:1031A000BC8F698D7A8D8B8D9C8D20E030E04AEF4D
:1031B00054E40E941F02DC01CB018D8B9E8BAF8BF0
:1031C000B88F6D897E898F89988D20E030E040E846
:1031D0005FE30E94790388232CF481E090E09C8BCC
:1031E0008B8B3FC06D897E898F89988D20E03FEF62
:1031F0004FE757E40E94190318164CF5698D7A8D34
:103200008B8D9C8D20E030E040E251E40E941F0253
:10321000DC01CB01BC01CD010E944900DC01CB01E6
:103220009C8B8B8B0FC088EC90E09A8B898B898963
:103230009A890197F1F79A8B898B8B899C890197E1
:103240009C8B8B8B8B899C89009769F714C06D8947
:103250007E898F89988D0E944900DC01CB019C8B6F
:103260008B8B8B899C89988B8F878F859889019709
:10327000F1F7988B8F8781E060E040E00E94E521C4
:103280008D8D982F9295907F82E0692F0E94F72272
:1032900081E060E041E00E94E52180E090E0A0E074
:1032A000B0E48B879C87AD87BE876B857C858D85D9
:1032B0009E8520E030E04AEF54E40E941F02DC01CA
:1032C000CB018F839887A987BA876F817885898595
:1032D0009A8520E030E040E85FE30E94790388238C
:1032E0002CF481E090E09E838D833FC06F817885D0
:1032F00089859A8520E03FEF4FE757E40E94190344
:1033000018164CF56B857C858D859E8520E030E018
:1033100040E251E40E941F02DC01CB01BC01CD015F
:103320000E944900DC01CB019E838D830FC088EC95
:1033300090E09C838B838B819C810197F1F79C8328
:103340008B838D819E8101979E838D838D819E814C
:10335000009769F714C06F81788589859A850E94E6
:103360004900DC01CB019E838D838D819E819A83F0
:10337000898389819A810197F1F79A83898381E012
:1033800060E040E00E94E5216D960FB6F894DEBF44
:103390000FBECDBFCF91DF910895DF93CF9300D0C3
:1033A00000D000D0CDB7DEB79E838D8319821A82FC
:1033B0001B821C8215C029813A818D819E81FC016E
:1033C000E20FF31F80810E94AB1889819A81AB8143
:1033D000BC810196A11DB11D89839A83AB83BC83F7
:1033E00029813A818D819E81FC01E20FF31F80814A
:1033F000882309F726960FB6F894DEBF0FBECDBF1F
:10340000CF91DF910895DF93CF9300D00F92CDB786
:10341000DEB78A836B838A81882319F48B81898341
:1034200006C08A81813019F48B81805C898389810F
:1034300080580E9489170F900F900F90CF91DF91C5
:103440000895DF93CF93CDB7DEB781E00E9489174F
:10345000CF91DF910895DF93CF93CDB7DEB7279754
:103460000FB6F894DEBF0FBECDBF9C838B836D83F8
:103470004E832F831A828D81882F90E0880F991FA9
:10348000880F991F880F991F89838981805C0E940A
:1034900089171A820EC08A81282F30E08B819C8187
:1034A000FC01E20FF31F80810E94AB188A818F5FBD
:1034B0008A838A81883078F38E816F810E94031A13
:1034C0008D810E94AB1827960FB6F894DEBF0FBE11
:1034D000CDBFCF91DF910895DF93CF93CDB7DEB706
:1034E0002D970FB6F894DEBF0FBECDBF99878887A2
:1034F0004A875B876C877D871F828A859B85AC8521
:10350000BD8589839A83AB83BC838A859B85AC8583
:10351000BD850097A105B10551F4E885F98580E3E3
:10352000808388859985FC01319610827CC08A85CC
:103530009B85AC85BD85BB2344F58DE20E94AB180D
:103540008A859B85AC85BD85B095A0959095819524
:103550009F4FAF4FBF4F8A879B87AC87BD8715C0F2
:103560008F818F5F8F8389819A81AB81BC812AE0B3
:1035700030E040E050E0BC01CD010E940831DA01AA
:10358000C90189839A83AB83BC8389819A81AB818A
:10359000BC810097A105B10519F71D8237C08A8546
:1035A0009B85AC85BD852AE030E040E050E0BC0161
:1035B000CD010E942A31DC01CB018E838A859B8557
:1035C000AC85BD852AE030E040E050E0BC01CD0193
:1035D0000E942A31DA01C9018A879B87AC87BD879F
:1035E0008F81282F30E08D81882F90E080959095F5
:1035F000820F931F9C0188859985FC01E20FF31FC0
:103600008E81805D80838D818F5F8D839D818F8191
:10361000981728F28F81282F30E088859985FC0142
:10362000E20FF31F1082888599850E94CD192D968F
:103630000FB6F894DEBF0FBECDBFCF91DF910895D6
:10364000DF93CF9300D000D00F92CDB7DEB79B832E
:103650008A831982EA81FB818281282F30E03D83B1
:103660002C838C819D81009731F02C813D8121300C
:10367000310561F016C0EA81FB818081EA81FB811E
:103680009181692F41E00E94E5210DC0EA81FB8113
:103690008081EA81FB819181692F40E00E94E521D0
:1036A00002C081E0898389810F900F900F900F9065
:1036B0000F90CF91DF910895DF93CF9300D000D08A
:1036C0000F92CDB7DEB79B838A831982EA81FB8193
:1036D0008281282F30E03D832C838C819D8100974F
:1036E00031F02C813D812130310561F016C0EA8135
:1036F000FB818081EA81FB819181692F40E00E94FA
:10370000E5210DC0EA81FB818081EA81FB81918105
:10371000692F41E00E94E52102C081E0898389810F
:103720000F900F900F900F900F90CF91DF91089511
:10373000DF93CF9300D00F92CDB7DEB79B838A8300
:103740001982EA81FB818281823050F4EA81FB8117
:103750008081EA81FB819181692F0E943F2302C011
:1037600081E0898389810F900F900F90CF91DF9135
:103770000895DF93CF9300D000D000D0CDB7DEB74F
:103780009B838A836C831982EA81FB818081282F45
:1037900030E03E832D838D819E81009731F02D8115
:1037A0003E8121303105D1F034C0EA81FB81218195
:1037B0008C81882F90E0FC01ED56FE4F9081822F86
:1037C000692F0E94F722EA81FB818281EA81FB81D5
:1037D0009381692F40E00E94E5211DC0EA81FB81B1
:1037E00021818C81882F90E0FC01ED56FE4F808175
:1037F000982F9095822F692F0E94F722EA81FB81F2
:103800008281EA81FB819381692F41E00E94E52159
:1038100002C081E08983898126960FB6F894DEBFC5
:103820000FBECDBFCF91DF910895DF93CF93CDB77A
:10383000DEB728970FB6F894DEBF0FBECDBF9B83CF
:103840008A836C8319828C81813051F5EA81FB81F6
:103850008081282F30E038872F838F8198850097CB
:1038600031F02F8138852130310561F016C0EA81B1
:10387000FB818281EA81FB819381692F40E00E9474
:10388000E5213DC0EA81FB818281EA81FB81938150
:10389000692F41E00E94E52132C081E089832FC079
:1038A0008C81882351F5EA81FB818081282F30E0CB
:1038B0003E832D838D819E81009731F02D813E8145
:1038C0002130310561F016C0EA81FB818281EA81F5
:1038D000FB819381692F41E00E94E52110C0EA81BC
:1038E000FB818281EA81FB819381692F40E00E9404
:1038F000E52105C081E0898302C081E08983898157
:1039000028960FB6F894DEBF0FBECDBFCF91DF91E2
:103910000895DF93CF93CDB7DEB7A3E5B0E0E3E53D
:10392000F0E0808188608C93A3E5B0E0E3E5F0E00F
:1039300080818F7B8C93A9E5B0E0E9E5F0E08081A0
:1039400082608C93ECE5F0E08DE78083A3E5B0E046
:10395000E3E5F0E0808181608C93A3E5B0E0E3E5EE
:10396000F0E0808182608C93A3E5B0E0E3E5F0E0D5
:1039700080818B7F8C93CF91DF910895DF93CF93DC
:10398000CDB7DEB7AFE4B0E0EFE4F0E080818E7F4A
:103990008C93AFE4B0E0EFE4F0E0808182608C9340
:1039A000AEE4B0E0EEE4F0E0808188608C93AEE4B9
:1039B000B0E0EEE4F0E0808180618C93AFE4B0E0B1
:1039C000EFE4F0E0808180688C93AFE4B0E0EFE456
:1039D000F0E080818F7B8C93AEE4B0E0EEE4F0E029
:1039E000808182608C93AEE4B0E0EEE4F0E0808110
:1039F0008E7F8C93AEE4B0E0EEE4F0E080818B7FCC
:103A00008C93CF91DF910895DF93CF9300D0CDB702
:103A1000DEB79A838983EAE4F0E089819A81918311
:103A200080830F900F90CF91DF910895DF93CF9314
:103A300000D0CDB7DEB79A838983E6E4F0E08981D0
:103A40009A81918380830F900F90CF91DF91089599
:103A5000DF93CF930F92CDB7DEB78983ECE5F0E02B
:103A6000898180830F90CF91DF910895DF93CF9369
:103A700000D00F92CDB7DEB79B838A8319828A81EB
:103A80009B81009739F08A819B819093BF0180933D
:103A9000BE0102C082E0898389810F900F900F9050
:103AA000CF91DF9108951F920F920FB60F921124BC
:103AB0002F933F934F935F936F937F938F939F9336
:103AC000AF93BF93EF93FF93DF93CF93CDB7DEB761
:103AD0008091BE019091BF01009729F0E091BE0155
:103AE000F091BF010995CF91DF91FF91EF91BF91C7
:103AF000AF919F918F917F916F915F914F913F9186
:103B00002F910F900FBE0F901F901895DF93CF93BA
:103B1000CDB7DEB7A7E2B0E0E7E2F0E080818064F5
:103B20008C93A7E2B0E0E7E2F0E080818F778C939E
:103B3000A7E2B0E0E7E2F0E0808180628C93A6E249
:103B4000B0E0E6E2F0E08081887F8C93A6E2B0E00E
:103B5000E6E2F0E0808187608C93A6E2B0E0E6E2E6
:103B6000F0E0808180688C93A6E2B0E0E6E2F0E0CD
:103B700080818F7D8C93CF91DF910895DF93CF93D8
:103B8000CDB7DEB728970FB6F894DEBF0FBECDBF16
:103B90008E8378876F831A821B821C821D82198212
:103BA0008091C401882309F05EC081E08093C40144
:103BB000A7E2B0E0E7E2F0E08081807E8C93A7E2AC
:103BC000B0E0E7E2F0E090818E81892B8C93A6E251
:103BD000B0E0E6E2F0E0808180648C930BC08A81E3
:103BE0009B81AC81BD810196A11DB11D8A839B8300
:103BF000AC83BD83E6E2F0E0808182958F70882FF0
:103C000090E081709070009761F48A819B81AC8113
:103C1000BD81803523EC920720E0A20720E0B207A7
:103C2000F1F68A819B81AC81BD81803523EC9207BE
:103C300020E0A20720E0B20719F481E0898315C0D3
:103C4000A6E2B0E0E6E2F0E0808180618C93E5E2FC
:103C5000F0E08081882F90E0EF81F8859183808368
:103C60001092C40102C083E089838981882F90E08B
:103C700028960FB6F894DEBF0FBECDBFCF91DF916F
:103C80000895DF93CF9300D000D000D0CDB7DEB73A
:103C90008A837C836B835E834D8319828091C40108
:103CA0008823D1F58B819C81009721F08D819E81A5
:103CB000009719F482E0898331C081E08093C401C8
:103CC0001092CB018B819C819093C1018093C001A4
:103CD0008D819E819093C3018093C201A7E2B0E0E1
:103CE000E7E2F0E08081807E8C93A7E2B0E0E7E23B
:103CF000F0E090818A81892B8C93A6E2B0E0E6E225
:103D0000F0E0808180648C93A6E2B0E0E6E2F0E02F
:103D1000808188608C9302C083E0898389812696A4
:103D20000FB6F894DEBF0FBECDBFCF91DF910895DF
:103D3000DF93CF9300D00F92CDB7DEB79B838A83FA
:103D400019828A819B81009719F483E0898355C089
:103D50008091C401882309F04EC081E08093C401A2
:103D600081E08093CB01EA81FB81808191819093F6
:103D7000C6018093C501EA81FB8183819481909380
:103D8000C3018093C201EA81FB8185819681909372
:103D9000C9018093C801EA81FB8182818093C701B8
:103DA0001092CA01A7E2B0E0E7E2F0E08081807EF5
:103DB0008C93A7E2B0E0E7E2F0E040812091C501FA
:103DC0003091C6018091CA01882F90E0F901E80F77
:103DD000F91F8081842B8C93A6E2B0E0E6E2F0E04C
:103DE000808180648C93A6E2B0E0E6E2F0E080811E
:103DF00088608C9302C083E0898389810F900F9043
:103E00000F90CF91DF9108951F920F920FB60F92EE
:103E100011242F933F934F935F936F937F938F93CF
:103E20009F93AF93BF93EF93FF93DF93CF93CDB760
:103E3000DEB78091CB018823D1F4A091C001B0916D
:103E4000C101E5E2F0E08081882F90E08D939C93A2
:103E50001092C401E091C201F091C3010995A6E25C
:103E6000B0E0E6E2F0E08081877F8C9355C08091DE
:103E7000CB01813009F050C02091C8013091C901B7
:103E80008091CA01882F90E0880F991FD901A80F4F
:103E9000B91FE5E2F0E08081882F90E011969C93B5
:103EA0008E938091CA018F5F8093CA019091CA015D
:103EB0008091C701981779F41092C401E091C20172
:103EC000F091C3010995A6E2B0E0E6E2F0E080815E
:103ED000877F8C9321C0A7E2B0E0E7E2F0E0808129
:103EE000807E8C93A7E2B0E0E7E2F0E04081209191
:103EF000C5013091C6018091CA01882F90E0F90177
:103F0000E80FF91F8081842B8C93A6E2B0E0E6E2F3
:103F1000F0E0808180648C93CF91DF91FF91EF91ED
:103F2000BF91AF919F918F917F916F915F914F91D1
:103F30003F912F910F900FBE0F901F901895DF9318
:103F4000CF9300D000D000D0CDB7DEB79C838B8359
:103F50007E836D831A821982EB81FC8126813781F1
:103F6000EB81FC8184819581A901481B590BCA0111
:103F70009A838983EB81FC8122813381EB81FC81EF
:103F800080819181A901481B590BCA019C0189813B
:103F90009A81B9010E94F430CB019A838983EB8125
:103FA000FC81208131818D819E81821B930B9C013C
:103FB00089819A81AC01429FC001439F900D529F1D
:103FC000900D11249A838983EB81FC8184819581F2
:103FD0009C0189819A81820F931F9A8389838981A9
:103FE0009A8126960FB6F894DEBF0FBECDBFCF9153
:103FF000DF910895DF93CF93CDB7DEB7AFE5B0E0A3
:10400000EFE5F0E0808180688C93CF91DF91089597
:10401000DF93CF93CDB7DEB7AFE5B0E0EFE5F0E0EB
:1040200080818F778C93CF91DF910895DF93CF9329
:10403000CDB7DEB7A5E5B0E0E5E5F0E080818E7FA5
:104040008C93A5E5B0E0E5E5F0E0808182608C939B
:10405000ABE5B0E0EBE5F0E0808180648C93CF913C
:10406000DF910895DF93CF93CDB7DEB7A5E5B0E03C
:10407000E5E5F0E080818B7F8C93A5E5B0E0E5E598
:10408000F0E0808188608C93ABE5B0E0EBE5F0E098
:10409000808180648C93CF91DF910895DF93CF93DB
:1040A000CDB7DEB7A4E5B0E0E4E5F0E080818F7B3A
:1040B0008C93ABE5B0E0EBE5F0E0808180648C931D
:1040C000CF91DF910895DF93CF9300D000D0CDB78B
:1040D000DEB78A8319828A81282F30E03C832B83C4
:1040E0008B819C818230910529F12B813C81233089
:1040F000310534F48B819C818130910561F047C09A
:104100002B813C812330310521F18B819C818430CE
:10411000910571F13CC0A5E5B0E0E5E5F0E08081F6
:104120008E7F8C93A5E5B0E0E5E5F0E080818D7FA2
:104130008C932FC0A5E5B0E0E5E5F0E080818160DB
:104140008C93A5E5B0E0E5E5F0E080818D7F8C9370
:1041500020C0A5E5B0E0E5E5F0E080818E7F8C939E
:10416000A5E5B0E0E5E5F0E0808182608C9311C0C8
:10417000A5E5B0E0E5E5F0E0808181608C93A5E500
:10418000B0E0E5E5F0E0808182608C9302C081E0E0
:10419000898389810F900F900F900F90CF91DF91BD
:1041A0000895DF93CF9300D000D0CDB7DEB78A83D8
:1041B00019828A81282F30E03C832B838B819C815C
:1041C0008230910529F12B813C812330310534F473
:1041D0008B819C818130910561F047C02B813C81AE
:1041E0002330310521F18B819C818430910571F15F
:1041F0003CC0A5E5B0E0E5E5F0E080818B7F8C93E5
:10420000A5E5B0E0E5E5F0E08081877F8C932FC0E5
:10421000A5E5B0E0E5E5F0E0808184608C93A5E55C
:10422000B0E0E5E5F0E08081877F8C9320C0A5E5D4
:10423000B0E0E5E5F0E080818B7F8C93A5E5B0E010
:10424000E5E5F0E0808188608C9311C0A5E5B0E0E1
:10425000E5E5F0E0808184608C93A5E5B0E0E5E5DC
:10426000F0E0808188608C9302C081E0898389813D
:104270000F900F900F900F90CF91DF910895DF93E3
:10428000CF9300D000D0CDB7DEB78A8319828A8160
:10429000282F30E03C832B838B819C8183309105D8
:1042A00031F02B813C812430310549F010C0A4E568
:1042B000B0E0E4E5F0E080818F7B8C930AC0A4E558
:1042C000B0E0E4E5F0E0808180648C9302C081E09E
:1042D000898389810F900F900F900F90CF91DF917C
:1042E0000895DF93CF9300D00F92CDB7DEB79B83B5
:1042F0008A8319828A819B81009739F08A819B8108
:104300009093CD018093CC0102C082E089838981A2
:104310000F900F900F90CF91DF9108951F920F9201
:104320000FB60F9211242F933F934F935F936F9388
:104330007F938F939F93AF93BF93EF93FF93DF93FD
:10434000CF93CDB7DEB78091CC019091CD0100978E
:1043500029F0E091CC01F091CD010995CF91DF9149
:10436000FF91EF91BF91AF919F918F917F916F914D
:104370005F914F913F912F910F900FBE0F901F9023
:104380001895DF93CF93CDB7DEB7EAE3F0E08FEC7B
:104390008083E7E3F0E08FEF8083E4E3F0E08FEFEA
:1043A0008083E1E3F0E087E28083EBE3F0E01082DA
:1043B000E8E3F0E01082E5E3F0E01082E2E3F0E011
:1043C0008FED8083CF91DF910895DF93CF93CDB7A9
:1043D000DEB728970FB6F894DEBF0FBECDBF8A8335
:1043E0006B834C8319828B81883008F0F4C08C81F8
:1043F000882309F077C08A81282F30E038872F83FF
:104400008F8198858130910559F12F81388522302F
:1044100031052CF48F819885009769F060C02F8159
:1044200038852230310589F18F8198858330910557
:1044300009F440C054C0ABE3B0E0EBE3F0E08081AE
:10444000482F8B81282F30E081E090E0022E02C0BF
:10445000880F991F0A94E2F7809584238C93BDC03E
:10446000A8E3B0E0E8E3F0E08081482F8B81282FBB
:1044700030E081E090E0022E02C0880F991F0A947C
:10448000E2F7809584238C93A8C0A5E3B0E0E5E330
:10449000F0E08081482F8B81282F30E081E090E090
:1044A000022E02C0880F991F0A94E2F78095842398
:1044B0008C9393C0A2E3B0E0E2E3F0E08081482F68
:1044C0008B81282F30E081E090E0022E02C0880F1F
:1044D000991F0A94E2F7809584238C937EC081E033
:1044E00089837BC08C81813009F072C08A81282F3A
:1044F00030E03E832D838D819E818130910549F18D
:104500002D813E81223031052CF48D819E810097D2
:1045100061F05BC02D813E812230310571F18D81CA
:104520009E8183309105E9F150C0ABE3B0E0EBE34D
:10453000F0E08081482F8B81282F30E081E090E0EF
:10454000022E02C0880F991F0A94E2F7842B8C93E5
:1045500044C0A8E3B0E0E8E3F0E08081482F8B811D
:10456000282F30E081E090E0022E02C0880F991FD2
:104570000A94E2F7842B8C9330C0A5E3B0E0E5E326
:10458000F0E08081482F8B81282F30E081E090E09F
:10459000022E02C0880F991F0A94E2F7842B8C9395
:1045A0001CC0A2E3B0E0E2E3F0E08081482F8B8101
:1045B000282F30E081E090E0022E02C0880F991F82
:1045C0000A94E2F7842B8C9308C081E0898305C0AC
:1045D00081E0898302C081E08983898128960FB6B2
:1045E000F894DEBF0FBECDBFCF91DF910895DF936A
:1045F000CF9300D000D00F92CDB7DEB78A836B8304
:1046000019828A81282F30E03D832C838C819D8103
:1046100081309105D1F02C813D81223031052CF47F
:104620008C819D81009761F01FC02C813D812230DB
:10463000310581F08C819D818330910581F014C01A
:10464000EBE3F0E08B81808311C0E8E3F0E08B8145
:1046500080830CC0E5E3F0E08B81808307C0E2E358
:10466000F0E08B81808302C081E0898389810F9093
:104670000F900F900F900F90CF91DF910895DF93DF
:10468000CF9300D000D00F92CDB7DEB78A836B8373
:1046900019828B81883008F072C08A81282F30E01F
:1046A0003D832C838C819D818130910549F12C8142
:1046B0003D81223031052CF48C819D81009761F081
:1046C0005BC02C813D812230310571F18C819D814F
:1046D00083309105E9F150C0ABE3B0E0EBE3F0E0EB
:1046E0008081482F8B81282F30E081E090E0022EDE
:1046F00002C0880F991F0A94E2F784278C9341C067
:10470000A8E3B0E0E8E3F0E08081482F8B81282F18
:1047100030E081E090E0022E02C0880F991F0A94D9
:10472000E2F784278C932DC0A5E3B0E0E5E3F0E049
:104730008081482F8B81282F30E081E090E0022E8D
:1047400002C0880F991F0A94E2F784278C9319C03E
:10475000A2E3B0E0E2E3F0E08081482F8B81282FD4
:1047600030E081E090E0022E02C0880F991F0A9489
:10477000E2F784278C9305C081E0898302C081E041
:10478000898389810F900F900F900F900F90CF9198
:10479000DF910895DF93CF93CDB7DEB727970FB69C
:1047A000F894DEBF0FBECDBF8A836B835D834C83DD
:1047B00019828C819D81009709F478C08B818830A3
:1047C00008F074C08A81282F30E03F832E834E8109
:1047D0005F814130510559F18E819F818230910571
:1047E00034F42E813F812115310569F05CC04E8182
:1047F0005F814230510579F18E819F81833091052F
:1048000009F43DC050C0E9E3F0E08081282F30E09A
:104810008B81882F90E0A90102C0559547958A9514
:10482000E2F7CA018170EC81FD81808341C0E6E33B
:10483000F0E08081282F30E08B81882F90E0A90163
:1048400002C0559547958A95E2F7CA018170EC81BF
:10485000FD8180832DC0E3E3F0E08081282F30E0EC
:104860008B81882F90E0A90102C0559547958A95C4
:10487000E2F7CA018170EC81FD81808319C0E0E319
:10488000F0E08081282F30E08B81882F90E0A90113
:1048900002C0559547958A95E2F7CA018170EC816F
:1048A000FD81808305C081E0898302C081E0898326
:1048B000898127960FB6F894DEBF0FBECDBFCF918A
:1048C000DF910895DF93CF9300D000D000D0CDB713
:1048D000DEB78A837C836B8319828B819C810097EE
:1048E00009F43EC08A81282F30E03E832D838D81DC
:1048F0009E8181309105E1F02D813E81223031058C
:104900002CF48D819E81009761F027C02D813E811E
:1049100022303105A1F08D819E8183309105B1F067
:104920001CC0E9E3F0E08081EB81FC8180831AC048
:10493000E6E3F0E08081EB81FC81808313C0E3E358
:10494000F0E08081EB81FC8180830CC0E0E3F0E04B
:104950008081EB81FC81808305C081E0898302C076
:1049600081E08983898126960FB6F894DEBF0FBE59
:10497000CDBFCF91DF9108950F931F93DF93CF9316
:10498000CDB7DEB7CC5BD0400FB6F894DEBF0FBE1C
:10499000CDBFCE0185569F4FC854DF4F9983888382
:1049A000C85BD04028EB31E0C654DF4F3983288301
:1049B000CA5BD04035E0C454DF4F3883CC5BD04075
:1049C000C654DF4FE881F981CA5BD0400080C654ED
:1049D000DF4F28813981CA5BD0402F5F3F4FC654DB
:1049E000DF4F39832883CA5BD040C854DF4FE8814A
:1049F000F981C85BD0400082C854DF4F28813981DB
:104A0000C85BD0402F5F3F4FC854DF4F39832883A6
:104A1000C85BD040C454DF4F3881CC5BD0403150AC
:104A2000C454DF4F3883CC5BD040C454DF4F48813F
:104A3000CC5BD040442321F6FE01E756FF4F1182A4
:104A40001082FE01E956FF4F11821082FE01E655E9
:104A5000FF4F11821082FE01EA56FF4F1082FE01C5
:104A6000EB56FF4F1082FE01EC56FF4F1082FE0105
:104A7000EE56FF4F11821082FE01E057FF4F118268
:104A80001082FE01E257FF4F118210820E94C12165
:104A90000E947B160E94FA1F0E94861D0E94891C9C
:104AA0000E94BE1C80E690E00E94CD19FE01E757EF
:104AB000FF4F80E090E8ABE3B5E480839183A2836D
:104AC000B3838E010B571F4FFE01E757FF4F6081E5
:104AD00071818281938120E030E04AEF54E40E94AA
:104AE0001F02DC01CB01F80180839183A283B38391
:104AF000FE01EB57FF4F608171818281938120E03D
:104B000030E040E85FE30E947903882344F4FE012B
:104B1000ED57FF4F81E090E09183808364C0FE01F8
:104B2000EB57FF4F608171818281938120E03FEFDD
:104B30004FE757E40E94190318160CF043C0FE011A
:104B4000E757FF4F608171818281938120E030E0DF
:104B500040E251E40E941F02DC01CB018E010D579F
:104B60001F4FBC01CD010E944900DC01CB01F801BF
:104B7000918380831FC0FE01EF57FF4F88EC90E0C8
:104B800091838083FE01EF57FF4F808191810197D0
:104B9000F1F7FE01EF57FF4F91838083DE01AD57A0
:104BA000BF4FFE01ED57FF4F808191810197119614
:104BB0009C938E93FE01ED57FF4F8081918100976A
:104BC000D1F627C08E010D571F4FFE01EB57FF4F47
:104BD00060817181828193810E944900DC01CB0157
:104BE000F80191838083DE01A158BF4FFE01ED578C
:104BF000FF4F808191818D939C93FE01E158FF4F7F
:104C0000808191810197F1F7FE01E158FF4F918377
:104C100080830E94211A88E690E00E94CD19FE014F
:104C2000E357FF4F1082BEC00E940616FE01EC56ED
:104C3000FF4F8083FE01EC56FF4F80810E94AB182E
:104C4000FE01E357FF4F8081282F30E0CA54DF4F29
:104C500039832883C65BD040CA54DF4F48815981CD
:104C6000C65BD0404130510509F440C0CA54DF4F03
:104C700088819981C65BD040823091054CF4CA543A
:104C8000DF4FE881F981C65BD0403097B1F081C039
:104C9000CA54DF4F28813981C65BD04022303105AC
:104CA00009F444C0CA54DF4F48815981C65BD040E3
:104CB0004330510509F45AC06CC0FE01EC56FF4F59
:104CC0008081882F90E09C012053304088EE93E053
:104CD000FC012E9FC0012F9F900D3E9F900D11242F
:104CE000FE01EE56FF4F9183808353C0FE01EC56C8
:104CF000FF4F8081282F30E084E690E0AC01249FB4
:104D0000C001259F900D349F900D11249C01FE0140
:104D1000EE56FF4F80819181820F931FFE01EE5668
:104D2000FF4F805C92419183808333C0FE01EC563B
:104D3000FF4F8081882F90E09C01220F331FC90113
:104D4000880F991F880F991F820F931F9C01FE01E6
:104D5000EE56FF4F80819181820F931FFE01EE5628
:104D6000FF4F805E91409183808313C0FE01EC561B
:104D7000FF4F8081282F30E0FE01EE56FF4F8081EB
:104D80009181820F931FFE01EE56FF4FC0979183D2
:104D90008083DE01A357BF4FFE01E357FF4F8081A1
:104DA0008F5F8C93FE01E357FF4F8081843008F4BE
:104DB0003BCFFE01E558FF4F80E090E0AAE7B3E467
:104DC00080839183A283B3838E0109581F4FFE0114
:104DD000E558FF4F608171818281938120E030E04E
:104DE0004AEF54E40E941F02DC01CB01F8018083EA
:104DF0009183A283B383FE01E958FF4F60817181E3
:104E00008281938120E030E040E85FE30E947903F3
:104E1000882344F4FE01EB58FF4F81E090E091833A
:104E2000808364C0FE01E958FF4F608171818281F7
:104E3000938120E03FEF4FE757E40E9419031816D3
:104E40000CF043C0FE01E558FF4F60817181828103
:104E5000938120E030E040E251E40E941F02DC0137
:104E6000CB018E010B581F4FBC01CD010E944900A0
:104E7000DC01CB01F801918380831FC0FE01ED5856
:104E8000FF4F88EC90E091838083FE01ED58FF4F47
:104E9000808191810197F1F7FE01ED58FF4F9183D9
:104EA0008083DE01AB58BF4FFE01EB58FF4F80817E
:104EB0009181019711969C938E93FE01EB58FF4FC1
:104EC000808191810097D1F627C08E010B581F4F2A
:104ED000FE01E958FF4F60817181828193810E94B8
:104EE0004900DC01CB01F80191838083DE01AF58DA
:104EF000BF4FFE01EB58FF4F808191818D939C93B2
:104F0000FE01EF58FF4F808191810197F1F7FE017B
:104F1000EF58FF4F918380830E94211A83E790E02E
:104F20000E94CD19FE01EB56FF4F10822CC3FE01EB
:104F3000EA56FF4F1082BEC00E940616FE01EC56D4
:104F4000FF4F8083FE01EC56FF4F80810E94AB181B
:104F5000FE01EA56FF4F8081282F30E0CC54DF4F0E
:104F600039832883C45BD040CC54DF4F48815981BA
:104F7000C45BD0404130510509F440C0CC54DF4FF0
:104F800088819981C45BD040823091054CF4CC5427
:104F9000DF4FE881F981C45BD0403097B1F081C028
:104FA000CC54DF4F28813981C45BD0402230310599
:104FB00009F444C0CC54DF4F48815981C45BD040D0
:104FC0004330510509F45AC06CC0FE01EC56FF4F46
:104FD0008081882F90E09C012053304088EE93E040
:104FE000FC012E9FC0012F9F900D3E9F900D11241C
:104FF000FE01E057FF4F9183808353C0FE01EC56C2
:10500000FF4F8081282F30E084E690E0AC01249FA0
:10501000C001259F900D349F900D11249C01FE012D
:10502000E057FF4F80819181820F931FFE01E0576F
:10503000FF4F805C92419183808333C0FE01EC5628
:10504000FF4F8081882F90E09C01220F331FC90100
:10505000880F991F880F991F820F931F9C01FE01D3
:10506000E057FF4F80819181820F931FFE01E0572F
:10507000FF4F805E91409183808313C0FE01EC5608
:10508000FF4F8081282F30E0FE01E057FF4F8081E5
:105090009181820F931FFE01E057FF4FC0979183CC
:1050A0008083DE01AA56BF4FFE01EA56FF4F808182
:1050B0008F5F8C93FE01EA56FF4F8081843008F4A5
:1050C0003BCFFE01EE56FF4F808191810E9403305D
:1050D000FE01E257FF4F91838083FE01E057FF4FAF
:1050E000DE01A257BF4F208131818D919C91119794
:1050F0002817390709F085C1FE01E359FF4F80E009
:1051000090E0AAE7B3E480839183A283B3838E0106
:1051100007591F4FFE01E359FF4F60817181828162
:10512000938120E030E04AEF54E40E941F02DC014A
:10513000CB01F80180839183A283B383FE01E759F9
:10514000FF4F608171818281938120E030E040E8EF
:105150005FE30E947903882344F4FE01E959FF4F7D
:1051600081E090E09183808364C0FE01E759FF4FA6
:10517000608171818281938120E03FEF4FE757E4A6
:105180000E94190318160CF043C0FE01E359FF4FAB
:10519000608171818281938120E030E040E251E4BE
:1051A0000E941F02DC01CB018E0109591F4FBC0177
:1051B000CD010E944900DC01CB01F801918380837D
:1051C0001FC0FE01EB59FF4F88EC90E09183808374
:1051D000FE01EB59FF4F808191810197F1F7FE01AC
:1051E000EB59FF4F91838083DE01A959BF4FFE0128
:1051F000E959FF4F80819181019711969C938E937D
:10520000FE01E959FF4F808191810097D1F627C0B7
:105210008E0109591F4FFE01E759FF4F60817181CF
:10522000828193810E944900DC01CB01F8019183C6
:105230008083DE01AD59BF4FFE01E959FF4F8081E8
:1052400091818D939C93FE01ED59FF4F8081918157
:105250000197F1F7FE01ED59FF4F918380830E9482
:10526000211A8EE790E00E94CD1981E060E00E9453
:10527000031A8FE890E00E94CD19FE01EE56FF4F11
:10528000808191819C0140E050E0CE0180569F4F8B
:10529000BA01A9010E946C1AFE01E15AFF4F80E099
:1052A00090E0AAE7B4E480839183A283B3838E0164
:1052B000055A1F4FFE01E15AFF4F608171818281C3
:1052C000938120E030E04AEF54E40E941F02DC01A9
:1052D000CB01F80180839183A283B383FE01E55A59
:1052E000FF4F608171818281938120E030E040E84E
:1052F0005FE30E947903882344F4FE01E75AFF4FDD
:1053000081E090E09183808364C0FE01E55AFF4F05
:10531000608171818281938120E03FEF4FE757E404
:105320000E94190318160CF043C0FE01E15AFF4F0A
:10533000608171818281938120E030E040E251E41C
:105340000E941F02DC01CB018E01075A1F4FBC01D6
:10535000CD010E944900DC01CB01F80191838083DB
:105360001FC0FE01E95AFF4F88EC90E091838083D3
:10537000FE01E95AFF4F808191810197F1F7FE010B
:10538000E95AFF4F91838083DE01A75ABF4FFE0188
:10539000E75AFF4F80819181019711969C938E93DC
:1053A000FE01E75AFF4F808191810097D1F6F2C04C
:1053B0008E01075A1F4FFE01E55AFF4F6081718130
:1053C000828193810E944900DC01CB01F801918325
:1053D0008083DE01AB5ABF4FFE01E75AFF4F808149
:1053E000918111969C938E93FE01EB5AFF4F808121
:1053F00091810197F1F7FE01EB5AFF4F9183808372
:10540000C9C0FE01EF5AFF4F80E090E0AAE7B3E485
:1054100080839183A283B3838E01035B1F4FFE01C0
:10542000EF5AFF4F608171818281938120E030E0EB
:105430004AEF54E40E941F02DC01CB01F801808393
:105440009183A283B383FE01E35BFF4F608171818F
:105450008281938120E030E040E85FE30E9479039D
:10546000882344F4FE01E55BFF4F81E090E09183E7
:10547000808364C0FE01E35BFF4F608171818281A4
:10548000938120E03FEF4FE757E40E94190318167D
:105490000CF043C0FE01EF5AFF4F608171818281A1
:1054A000938120E030E040E251E40E941F02DC01E1
:1054B000CB018E01055B1F4FBC01CD010E9449004D
:1054C000DC01CB01F801918380831FC0FE01E75B03
:1054D000FF4F88EC90E091838083FE01E75BFF4FF4
:1054E000808191810197F1F7FE01E75BFF4F918386
:1054F0008083DE01A55BBF4FFE01E55BFF4F80812E
:105500009181019711969C938E93FE01E55BFF4F6D
:10551000808191810097D1F627C08E01055B1F4FD6
:10552000FE01E35BFF4F60817181828193810E9464
:105530004900DC01CB01F80191838083DE01A95B86
:10554000BF4FFE01E55BFF4F808191818D939C935E
:10555000FE01E95BFF4F808191810197F1F7FE0128
:10556000E95BFF4F918380830E94211A8BE990E0D1
:105570000E94CD19DE01AB56BF4FFE01EB56FF4F27
:1055800080818F5F8C93FE01EB56FF4F80818330CB
:1055900008F4CDCCFE01EB56FF4F8081833009F03B
:1055A0008CC0FE01ED5BFF4F80E090E0AAE7B3E422
:1055B00080839183A283B3838E01015C1F4FFE0120
:1055C000ED5BFF4F608171818281938120E030E04B
:1055D0004AEF54E40E941F02DC01CB01F8018083F2
:1055E0009183A283B383FE01FF96608171818281E2
:1055F000938120E030E040E85FE30E947903882354
:105600002CF481E090E09EAF8DAF46C0FE01FF9686
:10561000608171818281938120E03FEF4FE757E401
:105620000E941903181664F5FE01ED5BFF4F6081BF
:1056300071818281938120E030E040E251E40E9458
:105640001F02DC01CB01BC01CD010E944900DC013D
:10565000CB019EAF8DAF0FC088EC90E09CAF8BAFBD
:105660008BAD9CAD0197F1F79CAF8BAF8DAD9EAD2F
:1056700001979EAF8DAF8DAD9EAD009769F716C0B7
:10568000FE01FF9660817181828193810E944900B1
:10569000DC01CB019EAF8DAF8DAD9EAD9AAF89AFD2
:1056A00089AD9AAD0197F1F79AAF89AF0E94211A9F
:1056B00087EA90E00E94CD19B2CA0E94211A8EEAB0
:1056C00090E00E94CD1980E090E0AAEFB3E48DABAA
:1056D0009EABAFABB8AF6DA97EA98FA998AD20E006
:1056E00030E04AEF54E40E941F02DC01CB0189AB99
:1056F0009AABABABBCAB69A97AA98BA99CA920E0FA
:1057000030E040E85FE30E94790388232CF481E0D5
:1057100090E098AB8FA73FC069A97AA98BA99CA9F3
:1057200020E03FEF4FE757E40E94190318164CF5AD
:105730006DA97EA98FA998AD20E030E040E251E448
:105740000E941F02DC01CB01BC01CD010E94490077
:10575000DC01CB0198AB8FA70FC088EC90E09EA72F
:105760008DA78DA59EA50197F1F79EA78DA78FA563
:1057700098A9019798AB8FA78FA598A9009769F76B
:1057800014C069A97AA98BA99CA90E944900DC01CF
:10579000CB0198AB8FA78FA598A99CA78BA78BA5AA
:1057A0009CA50197F1F79CA78BA70E94211A8FEB6C
:1057B00090E00E94CD1981E060E00E94031A80ED24
:1057C00090E00E94CD190E940616FE01EC56FF4F94
:1057D0008083FE01EC56FF4F8081282F30E0CE54AD
:1057E000DF4F39832883C25BD040CE54DF4F4881DE
:1057F0005981C25BD0404233510509F496C2CE5460
:10580000DF4F88819981C25BD0408333910509F4D1
:1058100055C3CE54DF4FE881F981C25BD040E133FC
:10582000F10509F0E6C30E94211A88ED90E00E947C
:10583000CD190E9406168093D2018091D201813346
:1058400029F08091D201823309F037CF0E94211ACA
:1058500085EE90E00E94CD1980E090E0AAEFB3E4DD
:105860008FA398A7A9A7BAA76FA178A589A59AA57C
:1058700020E030E04AEF54E40E941F02DC01CB013B
:105880008BA39CA3ADA3BEA36BA17CA18DA19EA164
:1058900020E030E040E85FE30E94790388232CF4A5
:1058A00081E090E09AA389A33FC06BA17CA18DA168
:1058B0009EA120E03FEF4FE757E40E94190318161E
:1058C0004CF56FA178A589A59AA520E030E040E2CB
:1058D00051E40E941F02DC01CB01BC01CD010E94FA
:1058E0004900DC01CB019AA389A30FC088EC90E0AA
:1058F00098A38F8F8F8D98A10197F1F798A38F8F21
:1059000089A19AA101979AA389A389A19AA1009735
:1059100069F714C06BA17CA18DA19EA10E944900D2
:10592000DC01CB019AA389A389A19AA19E8F8D8FB7
:105930008D8D9E8D0197F1F79E8F8D8F0E94211A7C
:1059400083EF90E00E94CD1981E060E00E94031A8D
:1059500084E091E00E94CD190E940616FE01EC56EB
:10596000FF4F80830E94211A84E191E00E94CD19AB
:1059700081E060E00E94031AFE01EC56FF4F808137
:10598000282F30E0C055DF4F39832883C05BD040DB
:10599000C055DF4F48815981C05BD040423351052B
:1059A00009F449C0C055DF4F88819981C05BD04060
:1059B0008333910509F4FCC0C055DF4FE881F981BC
:1059C000C05BD040E133F10509F077CE82E291E08F
:1059D0000E94CD198091D201282F30E0C255DF4FAF
:1059E00039832883CE5AD040C255DF4F4881598130
:1059F000CE5AD0404133510551F0C255DF4F888116
:105A00009981CE5AD0408233910539F00BC085EB95
:105A100091E061E00E94A30505C085EB91E062E0A2
:105A20000E94A3050E9406168A32E1F785EB91E0F9
:105A30000E94FB0542CE8DE291E00E94CD19A8C0E4
:105A40001092CF011092CE019E0126553F4F84E067
:105A5000B9010E94BE1DFE01E655FF4F8081918174
:105A60009C018DE991E0B9010E949F1F9093D101A3
:105A70008093D0010E94211A8091D0019091D10190
:105A80009C01442737FD4095542FCE0180569F4FEF
:105A9000BA01A9010E946C1A80E090E4ACE1B5E47F
:105AA000898F9A8FAB8FBC8F698D7A8D8B8D9C8DF2
:105AB00020E030E04AEF54E40E941F02DC01CB01F9
:105AC0008D8B9E8BAF8BB88F6D897E898F89988DDA
:105AD00020E030E040E85FE30E94790388232CF463
